8=FIX.4.4|9=200|35=8|49=BROKER12|56=CLIENT12|37=ORDERID123|11=12345|17=EXECID456|150=0|39=0|55=AAPL|54=1|38=100|44=180.50|32=0|31=0|151=100|14=0|6=0|10=050|
