8=FIX.4.4|9=176|35=D|49=CLIENT12|56=BROKER12|11=12345|21=1|55=AAPL|54=1|60=20240101-12:01:01|38=100|40=2|44=180.50|453=2|448=PARTY1|447=D|452=1|448=PARTY2|447=D|452=3|10=128|