8=FIX.4.4|9=176|35=D|49=CLIENT12|56=BROKER12|11=12345|21=1|55=AAPL|54=1|60=20240101-12:01:01|38=100|40=2|44=180.50|453=2|448=PARTY1|447=D|452=1|448=PARTY2|447=D|452=3|10=128|
8=FIX.4.4|9=200|35=8|49=BROKER12|56=CLIENT12|37=ORDERID123|11=12345|17=EXECID456|150=0|39=0|55=AAPL|54=1|38=100|44=180.50|32=0|31=0|151=100|14=0|6=0|10=050|
